:100000000C9440000C945D000C945D000C945D0019
:100010000C945D000C945D000C945D000C945D00EC
:100020000C945D000C945D000C945D000C945D00DC
:100030000C945D000C945D000C945D000C945D00CC
:100040000C945D000C945D000C945D000C945D00BC
:100050000C945D000C945D000C945D000C945D00AC
:100060000C945D000C945D000C945D000C945D009C
:100070000C945D000C945D000C945D002E01320127
:1000800011241FBECFEFD8E0DEBFCDBF21E0A0E03E
:10009000B1E001C01D92A130B207E1F710E0CFE35B
:1000A000D0E004C02197FE010E948002CE33D10728
:1000B000C9F70E9425010C9486020C94000080EF81
:1000C0008AB9109289001092880010928B001092C9
:1000D0008A00E0E8F0E08081816A8083E1E8F0E076
:1000E0008081826080831092820008950895CB0100
:1000F0006AE070E00E946C0290E080E06817790787
:1001000031F02AE12A95F1F700C00196F7CF089562
:10011000EF92FF920F931F93CF93DF9300D000D005
:1001200000D0CDB7DEB7E62E4D83862F64E60E9461
:100130006002282F30E050E040E029833A834B836F
:100140005C83CA01B9010E946701F62E072F182FA0
:100150009E838D8164E60E946002282F30E050E08B
:1001600040E029833A834B835C83CA01B9010E9432
:1001700067014D81242F30E0319521953109E21638
:10018000130609F04EC02FEB2BB92FED2BB920E051
:1001900030E04FE753E469837A838B839C836981E2
:1001A0007A818B819C810E94CB0169837A838B83C6
:1001B0009C8369817A818B819C810E943601462FC4
:1001C000572F509389004093880020E030E04FE79C
:1001D00053E4F9820A831B838E818C8369817A813F
:1001E0008B819C810E94CB0169837A838B839C8362
:1001F00069817A818B819C810E943601462F572F1D
:1002000050938B0040938A0026960FB6F894DEBF79
:100210000FBECDBFDF91CF911F910F91FF90EF9057
:1002200008952D81222321F028E02BB92CE0AECFB8
:1002300080E48BB980E28BB910928900109288001B
:1002400010928B0010928A00DFCF48E268E280E0D3
:1002500091E00E94880090E080E0089580E091E0C5
:100260000C945F0080E091E00C9476000E94AA015B
:1002700088F09F5798F0B92F9927B751B0F0E1F067
:10028000660F771F881F991F1AF0BA95C9F714C017
:10029000B13091F00E94C401B1E008950C94C40102
:1002A000672F782F8827B85F39F0B93FCCF3869550
:1002B00077956795B395D9F73EF4909580957095AD
:1002C00061957F4F8F4F9F4F0895E89409C097FB2A
:1002D0003EF490958095709561957F4F8F4F9F4F1D
:1002E0009923A9F0F92F96E9BB279395F695879561
:1002F00077956795B795F111F8CFFAF4BB0F11F424
:1003000060FF1BC06F5F7F4F8F4F9F4F16C08823CA
:1003100011F096E911C0772321F09EE8872F762F00
:1003200005C0662371F096E8862F70E060E02AF041
:100330009A95660F771F881FDAF7880F969587952D
:1003400097F9089557FD9058440F551F59F05F3F96
:1003500071F04795880F97FB991F61F09F3F79F0E7
:1003600087950895121613061406551FF2CF469569
:10037000F1DF08C0161617061806991FF1CF8695EB
:100380007105610508940895E894BB2766277727CF
:10039000CB0197F908950E94DE010C944F020E9450
:1003A000410238F00E94480220F0952311F00C948D
:1003B00038020C943E0211240C94C5010E94A20143
:1003C00070F3959FC1F3950F50E0551F629FF001A8
:1003D000729FBB27F00DB11D639FAA27F00DB11DC1
:1003E000AA1F649F6627B00DA11D661F829F22274A
:1003F000B00DA11D621F739FB00DA11D621F839FD1
:10040000A00D611D221F749F3327A00D611D231FA6
:10041000849F600D211D822F762F6A2F11249F57F4
:1004200050409AF0F1F088234AF0EE0FFF1FBB1FF7
:10043000661F771F881F91505040A9F79E3F5105B6
:1004400080F00C9438020C94C5015F3FE4F3983EB1
:10045000D4F3869577956795B795F795E7959F5F60
:10046000C1F7FE2B880F911D9695879597F90895F2
:1004700097F99F6780E870E060E008959FEF80EC57
:10048000089500240A9416161706180609060895FA
:1004900000240A9412161306140605060895092E60
:1004A0000394000C11F4882352F0BB0F40F4BF2BCF
:1004B00011F460FF04C06F5F7F4F8F4F9F4F08950F
:1004C000991B79E004C0991F961708F0961B881FA6
:1004D0007A95C9F780950895AA1BBB1B51E107C007
:1004E000AA1FBB1FA617B70710F0A61BB70B881FC4
:1004F000991F5A95A9F780959095BC01CD01089553
:10050000EE0FFF1F0590F491E02D099410E0CFE36A
:10051000D0E004C0FE010E9480022196C034D107C1
:06052000C9F7F894FFCFBB
:00000001FF
