:100000000C943E000C9448000C9448000C9448005A
:100010000C9448000C9448000C9448000C94480040
:100020000C9448000C9448000C9448000C94480030
:100030000C9448000C9448000C9448000C94480020
:100040000C9448000C9448000C9448000C94480010
:100050000C9448000C9448000C9448000C94480000
:100060000C9448000C9448000C9448000C944800F0
:100070000C9448000C9448000C94480011241FBEB6
:10008000CFEFD8E0DEBFCDBF0E94F1000C947F021D
:100090000C9400008AB180638AB910928900109292
:1000A000880010928B0010928A00109285001092A6
:1000B0008400E0E8F0E08081816A8083E1E8F0E09C
:1000C0008081826080831092820008950895CB0120
:1000D0006AE070E00E946B0290E080E068177907A8
:1000E00031F02AE12A95F1F700C00196F7CF089583
:1000F000EF92FF920F931F93CF93DF9300D000D026
:1001000000D0CDB7DEB77A016E837D83922F832F27
:100110005D9A5C9A20E030E048EC52E409831A834F
:100120009B838C8369817A818B819C810E940C01E5
:1001300020E030E04FE753E469837A838B839C832C
:1001400069817A818B819C810E94FE01DC01CB0157
:10015000BF7789839A83AB83BC83BC01CD010E94A6
:100160007E01709389006093880020E030E048ECC5
:1001700052E4E982FA829E819B83AD81AC836981DE
:100180007A818B819C810E940C0120E030E04FE756
:1001900053E469837A838B839C8369817A818B8121
:1001A0009C810E94FE01DC01CB01BF7789839A8389
:1001B000AB83BC83BC01CD010E947E01462F572F2B
:1001C00050938B0040938A0026960FB6F894DEBFBA
:1001D0000FBECDBFDF91CF911F910F91FF90EF9098
:1001E00008950F92CDB7DEB7CE0101960E944A0066
:1001F00000E010E024EB32E440E050E060E271E423
:10020000CE0101960E947800CE0101960E94660000
:1002100090E080E00F9008950E9420010C94C401AA
:100220000E94BD0158F00E94B60140F029F45F3FE2
:1002300029F00C94AD0151110C94F8010C94B30108
:100240000E94D50168F39923B1F3552391F3951BCF
:10025000550BBB27AA2762177307840738F09F5FE7
:100260005F4F220F331F441FAA1FA9F335D00E2E54
:100270003AF0E0E832D091505040E695001CCAF7C1
:100280002BD0FE2F29D0660F771F881FBB1F261784
:1002900037074807AB07B0E809F0BB0B802DBF015B
:1002A000FF2793585F4F3AF09E3F510578F00C942A
:1002B000AD010C94F8015F3FE4F3983ED4F38695CA
:1002C00077956795B795F7959F5FC9F7880F911D4B
:1002D0009695879597F90895E1E0660F771F881F37
:1002E000BB1F621773078407BA0720F0621B730BEA
:1002F000840BBA0BEE1F88F7E09508950E94DD018C
:1003000088F09F5798F0B92F9927B751B0F0E1F0D6
:10031000660F771F881F991F1AF0BA95C9F714C086
:10032000B13091F00E94F701B1E008950C94F7010B
:10033000672F782F8827B85F39F0B93FCCF38695BF
:1003400077956795B395D9F73EF49095809570951C
:1003500061957F4F8F4F9F4F089597F99F6780E872
:1003600070E060E008959FEF80EC089500240A9407
:100370001616170618060906089500240A94121680
:100380001306140605060895092E0394000C11F4B3
:10039000882352F0BB0F40F4BF2B11F460FF04C060
:1003A0006F5F7F4F8F4F9F4F089557FD9058440FB9
:1003B000551F59F05F3F71F04795880F97FB991FC4
:1003C00061F09F3F79F08795089512161306140681
:1003D000551FF2CF4695F1DF08C01616170618060E
:1003E000991FF1CF86957105610508940895E894E9
:1003F000BB2766277727CB0197F908950E94110242
:100400000C94C4010E94B60138F00E94BD0120F096
:10041000952311F00C94AD010C94B30111240C94AC
:10042000F8010E94D50170F3959FC1F3950F50E03C
:10043000551F629FF001729FBB27F00DB11D639F96
:10044000AA27F00DB11DAA1F649F6627B00DA11D3C
:10045000661F829F2227B00DA11D621F739FB00DE2
:10046000A11D621F839FA00D611D221F749F332752
:10047000A00D611D231F849F600D211D822F762FEB
:100480006A2F11249F5750409AF0F1F088234AF0C8
:10049000EE0FFF1FBB1F661F771F881F9150504034
:1004A000A9F79E3F510580F00C94AD010C94F80122
:1004B0005F3FE4F3983ED4F3869577956795B795BB
:1004C000F795E7959F5FC1F7FE2B880F911D9695D5
:1004D000879597F90895AA1BBB1B51E107C0AA1F76
:1004E000BB1FA617B70710F0A61BB70B881F991FD5
:1004F0005A95A9F780959095BC01CD010895F8947F
:02050000FFCF2B
:00000001FF
