:100000000C943F000C945C000C945C000C945C001D
:100010000C945C000C945C000C945C000C945C00F0
:100020000C945C000C945C000C945C000C945E00DE
:100030000C945C000C945C000C945C000C945C00D0
:100040000C945C000C945C000C945C000C945C00C0
:100050000C945C000C945C000C945C000C945C00B0
:100060000C945C000C945C000C945C000C945C00A0
:100070000C945C000C945C000C945C002F01112427
:100080001FBECFEFD8E0DEBFCDBF21E0A0E0B1E0E2
:1000900001C01D92A231B207E1F710E0CFE3D0E03A
:1000A00004C02197FE010E946A01CE33D107C9F72F
:1000B0000E942A010C9470010C9400001F920F9270
:1000C0000FB60F9211242F933F934F935F936F932B
:1000D0007F938F939F93AF93BF93EF93FF9380E0B2
:1000E00091E00E94AF00682F80E091E00E94230120
:1000F000809100018F5F8093000180910001893021
:1001000018F083E080930001FF91EF91BF91AF91D0
:100110009F918F917F916F915F914F913F912F911F
:100120000F900FBE0F901F90189588EF81B98FEF39
:1001300087B912B818B80895F89410920601109271
:1001400005011092B200E1EBF0E0808181608083D4
:10015000E0E7F0E080818160808378940895FC017D
:100160008CEF8093070180E6809308018AED8093ED
:10017000090182EF80930A0186E680930B0186EBEA
:1001800080930C018EEB80930D0180EE80930E0125
:100190008EEF80930F0186EE8093100182E08093B2
:1001A00011018381948197FF07C083819481919588
:1001B00081959109948383838181928197FF07C000
:1001C000818192819195819591099283818380812A
:1001D000843061F4818192816AE070E00E94420182
:1001E000CB01895F9E4FFC0180810895808187301B
:1001F00019F483819481F0CF8081853039F4818135
:1002000092816AE070E00E944201EBCF80818830E9
:1002100019F483819481F5CF809111010895FC0137
:1002200082B1886F82B9408122B14150550B81E083
:1002300090E002C0880F991F4A95E2F7809590954B
:10024000822382B90895CF93C62F0E940F01C8B9A7
:10025000CF91089580E091E00E949C00FFCFE0E004
:10026000F1E083E080838BEF9FEF9283818385E0D1
:1002700090E09483838388EF81B99FEF97B982B927
:1002800018B8089597FB072E16F4009407D077FD51
:1002900009D00E94560107FC05D03EF49095819547
:1002A0009F4F0895709561957F4F0895AA1BBB1BC2
:1002B00051E107C0AA1FBB1FA617B70710F0A61B66
:1002C000B70B881F991F5A95A9F780959095BC0187
:1002D000CD010895EE0FFF1F0590F491E02D0994D4
:0402E000F894FFCFC0
:00000001FF
